:4000000000800020110000002D0300002D03000008B5044B1A6803F53F5302331A6000F087F900BFFA46004010B5054C237833B9044B13B10448AFF300800123237010BD97
:400040005081FF1F00000000F00D000008B5064B1BB106480649AFF300800648036813B1054B03B1984708BD00000000F00D00005481FF1F0881FF1F0000000008B500F092
:400080007DF808BD08B5084800F0E7FC0120014600F04CFD054800F0E0FC00F0D5F8BDE8084000F0F3BD00BFF40D0000010E000008B500F02DFD094800F0CFFC0120014608
:4000C00000F034FD064800F0C8FC4FF47A7000F057FDBDE80840012000F0CDBC0F0E00001C0E000008B500F0AFFDBDE8084000F0CDBD08B500F0B8FABDE8084000F0DABB0D
:4001000008B500F007F9FFF7F4FFFFF7EBFFBDE80840FFF7CDBF0000002010B5014600F005FD124800F099FC0E21002000F0FEFC0F4800F092FC0F4C0021012000F0F6FC50
:400140000D4800F08AFC207800F0B2FD01200A2100F0ECFC207800F08CFC23780133DBB27F2B08BF2123237010BD00BF2B0E0000190E00007181FF1F360E000008B5FFF7B2
:40018000BFFFFFF77FFF012000F075FC0F4B21221A7000F0E5FD10B9012000F06CFC00F0E7FD10B9402000F083FD094B187810B1FFF7B2FF05E0014600F0B8FC054800F08A
:4001C0004CFC4FF47A7000F0DBFCE2E77181FF1F7381FF1F410E000010B5084C206800F073FD0A2000F0CCFC606800F06DFDBDE810404FF4FA7000F0C3BC00BF1081FF1F05
:4002000008B500F061FD0D2000F06EFDBDE80840642000F0B5BC000038B5094B02221A701D462B78064C0A2B08D8064A52F82300FFF7E6FF237801332370F2E738BD00BF76
:400240007181FF1F1081FF1F08B5FFF7C5FFFFF7E3FF4FF47A7000F093FC00F017FD024B01221A7008BD00BF7281FF1F08B5402000F01EFD012000F0FEFB0E4800F0EDFBD1
:400280000721012000F052FC0B4800F0E6FB4FF47A7000F075FC012000F0EDFB074B01200E21187000F042FCBDE80840044800F0D4BB00BF500E0000610E00007381FF1F5E
:4002C000640E000038B500F0CDFC00F0D3FC0E4B0E4A1978C0B2107014461D4619B13F2801D1FFF7C3FF00200A2100F01FFC2B7843B1207830B1064B1B781BB1BDE8384048
:4003000000F0B7BB38BD00BF7281FF1F0C81FF1F7381FF1F08B562B600F0FAFCBDE80840014800F00BBD00BFC5020000FEE7000008B51249124B4A1C1AD053F8106C53F8EE
:400340000C0C53F8085C0022AA4200EB020403D0B45884500432F7E753F8040C0022824203D00025A5500432F9E710330139E2E700F006FDFFF782FEFEE700BF0000000059
:40038000900F000008B5114A114B1A609A6842F400729A600023032B98BF0E4A4FEA830094BF52F823100C490C4A0133302B1150F1D10B4B19780B4B19700B4B1A6000F09D
:4003C00017F80A4B00221A6008BD00BF0004FA050CED00E0000000002D0300000080FF1FBC7600400481FF1F08ED00E00081FF1FF8B572B6604B00241A7842F004021A704E
:400400005E4B0021234418689A88063400F0E7FC302CF5D15A4980225A4800F0D7FC5A4A002152F8043FDCB223F0FF054B0003F190435433204602333CB113F8026C13F874
:40044000017C013CAF55E4B2F5E7504B01449A42E7D14F4B4F4E1A784F4D42F002021A701A7C192742F002021A74337843F0400333704A4B1A7842F010021A70484A03F6D5
:40048000FE5307CA03C31A80464A283307CA03C31A80454A454B03CB1060516093E8070003C5434B2A80434A354607CA03C31A80A3F646631A78A3F2A22342F0080283F8F0
:4004C000A222012283F8802718221F809A70022283F88022032108234FF04022137082F80012354A1178354AC9B21170A2F27F421380334B41F251221A80324B4FF4F07087
:400500001B7803F0010343EA440400F025FB013F04F003042FD0032CEFD12B4B4FF480721A802A4907221A70482000220A7088701A70022203F8032C93F89E23244C42F056
:40054000010283F89E23812283F8FC27012203F5F8231A701F4B204A1B78DBB203F007011B09117053701D4B44221A7095E80F0007C42380F8BDFEE7E84600402A0F000051
:40058000A003004800140140FCFFFF475000004803500140A043004030510040C2430040200400482C0400482251004038040048605100404C04004808010049A146004048
:4005C00020420040254200400440004006400040B0430040CF0100496E5800407658004038B5114B02221A70812203F80E2C00240F25082203F80C2C5D719C710B4B4FF450
:4006000000421A602846072100F0E4FA2846084900F0D2FA074B10221A70074B1C70074B1C70074B1C7038BDD649004080E100E0910600007083FF1F7683FF1F7E83FF1F04
:400640007483FF1F08B500F091FA064B1A7842F004021A701A7C42F004021A74BDE8084000F088BAA543004010B5074C23781BB9FFF7B6FF01232370FFF7E4FF034B4FF492
:4006800000421A6010BD00BF6C81FF1F00E100E070B57B487B490B780278DBB212F0400F024600F0E680D80740F1CF8010784538052800F2CA80DFE810F006005700C80048
:4006C000C8000600980003F0DF0003F00A03082B24D114786A4B452C1BD16B4C247864B16A4C246825786A4CEDB2257004240C70684901240C7046210EE0674C2478A60784
:4007000028D566490C7844F00A040C70602119701BE000240C704A21197095E00A2B40F093805E4B1C7844F0A0041C705A4C2478A5070FD51978147814F0080F0CBF0A24A1
:4007400009242143197060231370554B4FF40041196079E0534B1C7844F010041C701024DC7004230B706FE09C0725D44948464C05782478A5420DD2444D04782D68E4B216
:400780002D5D434CEDB2257004240C7001780131C9B228E040480078800704D53F49087840F00A0041E03F48047844F0100404701024C47004202BE03748007810F0020FF9
:4007C000364804D0017841F09A0101702EE0354C257845F0100525701025E57004240C70017841F0900101702FE02F48284E2F4D047836782D68E4B2F6B22E550478013463
:40080000E4B2047004782A480078844202D2102008701AE02048007800F0020000F0FF0458B11E49087840F009000870602111701B494FF40040086007E01A48057845F05A
:40084000100505700C7000E00346990616D5134B1978107810F0080F0CBF0220012001431970104B197801F0EF0119701023137070BD0378DB065CBF1023037070BD00BF14
:400880007083FF1FD74900407583FF1F8083FF1FD84900407483FF1F7C83FF1F7683FF1F80E100E0D64900407E83FF1F7883FF1F7D83FF1F054A4FF400431360044A002139
:4008C00010781170034A1360704700BF80E100E07683FF1F00E100E010B50B4C237803F09F032370237803F0F0032370237843F0100318432070012000F056F9237803F0F3
:40090000EF03237010BD00BF2051004038B50F4C05462378002043F020032370237803F0BF03237000F040F92378012003F0F0032370237843F010031D43257000F034F98A
:40094000237803F0EF03237038BD00BF205100402DE9F843354C36492378364A03F08003DBB223700B784FF4CA7503F0F00343F00F030B7013780E4603F0F00313702E4B91
:4009800017461878984600F0F0001870207800F0DF002070207840F040002070002000F003F92378012043F01003237000F0FCF8224B002093F8009023785FFA89F903F0DF
:4009C000EF03237000F0F0F82378012043F01003237000F0E9F8237819F0080F03F0EF0323701FD10A2000F0DFF8237803F0BF032370237803F08003DBB22370337803F06E
:400A0000F00333703B7803F0F00343F00F033B7098F8003003F0F00343F00F0388F80030BDE8F883013DB9D1DFE700BF205100402251004023510040245100402151004010
:400A400010B50446FFF784FF2009FFF75FFF04F00F00BDE81040FFF759BF38B505460078012428B1FFF7ECFF285D0134E4B2F8E738BDFFF7E5BF10B50446FFF769FF200988
:400A8000FFF72AFF04F00F00BDE81040FFF724BF08B5282000F074F80320FFF71DFF052000F06EF80320FFF717FF0F2000F068F80320FFF711FF012000F062F80220FFF7DB
:400AC0000BFF052000F05CF80620FFF7D4FF0E20FFF7D1FF2C20FFF7CEFF0820FFF7CBFF0120FFF7C8FF0C20FFF7C5FF0320FFF7C2FFBDE80840052000F042B808B50C2026
:400B0000FFF7B9FF014B01221A7008BD6D81FF1F10B5054C63781BB9FFF7BAFF01236370BDE81040FFF7EABF6D81FF1F032811D8DFE800F00205080B81F0800008E0A1F1E2
:400B4000400004E0A1F16C0001E0A1F12C00C0B2FFF791BF704700000230800800F0058000BF013800467FF4FCAF7047EFF3108072B6704780F31088704700BFAFF300800F
:400B800010B50446B4F5004F064B05D91868FFF7E3FFA4F50044F5E758686043BDE81040FFF7DABF3C81FF1F024B1B7A5843FFF7D3BF00BF3C81FF1F054B00F01F001B68AB
:400BC00000F1100253F8220043F82210704700BF08ED00E000F01F0000F16040490100F56440C9B201707047074B72221A70202203F8032CA3F5B07306221A7047221A7467
:400C0000002283F85F2070478765004010B5FFF7ADFF0C4B04461A78033B42F02002DA701A7842F010021A7013F8FE2C42F0100203F8FE2C00F088F82046BDE81040FFF780
:400C400099BF00BF9765004010B5054C23781BB9FFF7CAFF01232370BDE81040FFF7D6BF6F81FF1F024B187800F07F00704700BF64650040044B1878203B1B7800F07F0091
:400C800043EA0020704700BF6465004008B5FFF76DFF064B1A7842F001021A701A7802F0FE021A70BDE80840FFF764BF94650040034B1B785B07FBD4024B1870704700BFFD
:400CC000666400404664004038B5064B05461B783BB10024A3B2E85C013410B1FFF7E8FFF8E738BD6F81FF1F08B5074B1B784BB1FFF7DEFF0D20FFF7DBFFBDE808400A2001
:400D0000FFF7D6BF08BD00BF6F81FF1F70470000074A0123136002F68832126805491164054AE0211170A2F540721360704700BF80E100E00D0D000000E400E0014B1B6817
:400D40001864704708ED00E0044B1A7842F001021A701A7C42F001021A747047A2430040024B1878C0F34000704700BF61510040024B1878C0F34010704700BFF151004086
:400D800070B50E4B0E4D0024ED1AAD101E46AC4204D056F8242090470134F8E700F0DEF8084D094B0024ED1AAD101E46AC4204D056F8242090470134F8E770BD680F000031
:400DC000680F0000700F0000680F000010B50023934203D0CC5CC4540133F9E710BD02440346934202D003F8011BFAE770470000000000002020204D6F64756C652048467C
:400E000000436F6E66696775726174696F6E002020204D6F64756C6520415000496E697469616C69736174696F6E0043686172207265633A20004368617220656E763A20AF
:400E400000417474656E746520646520535441005472616E736D697373696F6E20544350004F4B006F6B002B2B2B00610041542B450041542B554152543D313135323030DE
:400E80002C382C312C4E6F6E652C4E46430041542B574D4F44453D41500041542B5741503D313142474E2C524147545F45545556452C434831310041542B57414B45593DB1
:400EC0004F50454E2C4E4F4E450041542B5741444843503D6F66660041542B4C414E4E3D31302E31302E3130302E3235342C3235352E3235352E3235352E300041542B4E0F
:400F00004554503D5443502C5365727665722C383839392C31302E31302E3130302E3235340041542B454E544D00C84900401900005100402000405100402000000001400E
:400F4000001080140140800700400140000A004C014000020050014020000000F8B500BFF8BC08BC9E4670474D00000085030000F8B500BFF8BC08BC9E467047290000003E
:400F8000900F00000881FF1F48000000380200000000000020000000670E00006B0E00006D0E0000720E00008E0E00009A0E0000B70E0000CA0E0000D80E0000FC0E00008F
:400FC000220F00000000E02EC05D00001800000000366E010000000000000000000000000000000000000000000000000000000000000000000000000000000000000000D8
:4010000000000000000000000000000000000000000000000000000000000000000000000000000000000000000000000000000000000000000000000000000000000000B0
:401040000000000000000000000000000000000000000000000000000000000000000000000000000000000000000000000000000000000000000000000000000000000070
:401080000000000000000000000000000000000000000000000000000000000000000000000000000000000000000000000000000000000000000000000000000000000030
:4010C00000000000000000000000000000000000000000000000000000000000000000000000000000000000000000000000000000000000000000000000000000000000F0
:020000040003F7
:0200000480007A
:4000000006520040016400400265004060060140320701400B14014048150140421601403817014001190140041B0140024001400141014003420140024301400548014039
:4000400016490140084C0140084D0140045001400251014018801C203402600264037C20860F84388772000C0203051406030A040F031001111C120A13221401154016066B
:4000800019091B10201025102601292C2A0C2B112D302F0C3001320E33603410371F39083A083E114046410345E046C0470B481A49FF4AFF4BFF4EF04F44500C5401580436
:4000C00059045A045B045F0166C06A406B02860C8715890C8B108C0C8E039001910F920693309401960E9B20A12AA310A608A90FAA03AB10B00FB13CB303B908BA02BB025A
:40010000BF04C003C640C9FFCA07CBFFCC40CD20CEF0CF05D008D804D904DA04DF01E040E1A8E240E3200040031004280501090A0D0A1028150116101710184019011D0847
:400140001E481F0821062540271129012B082F2A3102331235013608371038183A103D803E084104450A4C044D01503C5208532056185C105D015E48C075C23CC476CA7593
:40018000CCE5CE56D0C2D220D6F08E01900196019801A002B201B402B808BE10D804DF0100820324054009080A060B800D080E040F40100211141204170119121A101BA0F6
:4001C0001C081F0820012102220723042A442B083080311238403924400142144304488149804A044B4052405902628163048444851086808A849040911492049380961002
:4002000099C09B019E819F04A002A108A204A440A602A7A0C08FC27FC417CA0ECC0DCE0ED00ED20CD601D80DE001E401E620EA01010405020A010B010C060E0110011206AF
:40024000140615071601180719061D011F06210623012402250728062C043107330736073A80580459045F0181108403851889088A038C01901F91079318941C951C9603E7
:400280009702981F9C139D1C9E0C9F01A008A304A404A703A80CA91FAC02AD04B210B31FB60FBAA0BB08BE04D602D712D804D904DB04DF0100800204032405400704090841
:4002C0000A060B800D080E040F801080120213281602172819981A061B401D401F40210822082440260429102A842B802E042F403148320135803608372038283A023E1299
:400300003F0459086802691470947202732C8E019B01C0C7C27FC4EFCACFCC7BCEE7D602E208E640E208E001E401E620EA013080CC10A4803E10A480CE209610A4808620D7
:400340008C809610A480E2100D08122017045C0272207408822083048402850888089A20AA10C220C430D680DC80DE20E0C0E480E640EA801240132016107B107D208640F4
:40038000C40EDE03811083108A109A10A510A710AB20E60400010A0110011A01000303C03000000032030C0000013022140003040002302100003000300000102800020433
:4003C000000000004E0300004E00000840000008300340040E08013000000000000000545302060001C00E0006FFFFFF62A0F0410C00000018000400040404040000000163
:400400000000000000004002001030100010101200000000000000000000000000000000030000000300030000000000200000200000000000000000007F7F0000000000B1
:400440008000208080008000000000000200000200000000000000000000000000000000000000000000000000000000000000000000000000000000000000000000000058
:40048000000000000000000000000000000000000000000000000000000000000000000000000000000000000000000000000000000000000000000000000000000000003C
:4004C00000000000000000000000000000000000000000000000000000000000000000000000000000000000000000000000000000000000000000000000000000000000FC
:4005000000000000000000000000000000000000000000000000000000000000000000000000000000000000000000000000000000000000000000000000000000000000BB
:40054000000000000000000000000000000000000000000000000000000000000000000000000000000000000000000000000000000000000000000000000000000000007B
:0200000490006A
:0400000000004005B7
:0200000490105A
:04000000BC90ACAF55
:0200000490303A
:02000000DE0719
:0200000490402A
:4000000000000000000000000000000000000000000000000000000000000000000000000000000000000000000000000000000000000000000000000000000000000000C0
:400040000000000000000000000000000000000000000000000000000000000000000000000000000000000000000000000000000000000000000000000000000000000080
:400080000000000000000000000000000000000000000000000000000000000000000000000000000000000000000000000000000000000000000000000000000000000040
:4000C0000000000000000000000000000000000000000000000000000000000000000000000000000000000000000000000000000000000000000000000000000000000000
:0200000490501A
:0C00000000012E12306900012E190E7054
:00000001FF